{
  "contractName": "DeProne",
  "abi": [
    {
      "inputs": [
        {
          "internalType": "string",
          "name": "_tokenName",
          "type": "string"
        },
        {
          "internalType": "string",
          "name": "_tokenSymbol",
          "type": "string"
        }
      ],
      "stateMutability": "nonpayable",
      "type": "constructor"
    },
    {
      "anonymous": false,
      "inputs": [
        {
          "indexed": true,
          "internalType": "address",
          "name": "owner",
          "type": "address"
        },
        {
          "indexed": true,
          "internalType": "address",
          "name": "spender",
          "type": "address"
        },
        {
          "indexed": false,
          "internalType": "uint256",
          "name": "value",
          "type": "uint256"
        }
      ],
      "name": "Approval",
      "type": "event"
    },
    {
      "anonymous": false,
      "inputs": [
        {
          "indexed": true,
          "internalType": "address",
          "name": "from",
          "type": "address"
        },
        {
          "indexed": true,
          "internalType": "address",
          "name": "to",
          "type": "address"
        },
        {
          "indexed": false,
          "internalType": "uint256",
          "name": "value",
          "type": "uint256"
        }
      ],
      "name": "Transfer",
      "type": "event"
    },
    {
      "inputs": [
        {
          "internalType": "address",
          "name": "",
          "type": "address"
        }
      ],
      "name": "RegisteredValidators",
      "outputs": [
        {
          "internalType": "uint256",
          "name": "",
          "type": "uint256"
        }
      ],
      "stateMutability": "view",
      "type": "function",
      "constant": true
    },
    {
      "inputs": [
        {
          "internalType": "address",
          "name": "owner",
          "type": "address"
        },
        {
          "internalType": "address",
          "name": "spender",
          "type": "address"
        }
      ],
      "name": "allowance",
      "outputs": [
        {
          "internalType": "uint256",
          "name": "",
          "type": "uint256"
        }
      ],
      "stateMutability": "view",
      "type": "function",
      "constant": true
    },
    {
      "inputs": [
        {
          "internalType": "address",
          "name": "spender",
          "type": "address"
        },
        {
          "internalType": "uint256",
          "name": "amount",
          "type": "uint256"
        }
      ],
      "name": "approve",
      "outputs": [
        {
          "internalType": "bool",
          "name": "",
          "type": "bool"
        }
      ],
      "stateMutability": "nonpayable",
      "type": "function"
    },
    {
      "inputs": [
        {
          "internalType": "address",
          "name": "account",
          "type": "address"
        }
      ],
      "name": "balanceOf",
      "outputs": [
        {
          "internalType": "uint256",
          "name": "",
          "type": "uint256"
        }
      ],
      "stateMutability": "view",
      "type": "function",
      "constant": true
    },
    {
      "inputs": [],
      "name": "calculatedScoreCountValidator",
      "outputs": [
        {
          "internalType": "uint256",
          "name": "",
          "type": "uint256"
        }
      ],
      "stateMutability": "view",
      "type": "function",
      "constant": true
    },
    {
      "inputs": [],
      "name": "decimals",
      "outputs": [
        {
          "internalType": "uint8",
          "name": "",
          "type": "uint8"
        }
      ],
      "stateMutability": "view",
      "type": "function",
      "constant": true
    },
    {
      "inputs": [
        {
          "internalType": "address",
          "name": "spender",
          "type": "address"
        },
        {
          "internalType": "uint256",
          "name": "subtractedValue",
          "type": "uint256"
        }
      ],
      "name": "decreaseAllowance",
      "outputs": [
        {
          "internalType": "bool",
          "name": "",
          "type": "bool"
        }
      ],
      "stateMutability": "nonpayable",
      "type": "function"
    },
    {
      "inputs": [
        {
          "internalType": "address",
          "name": "spender",
          "type": "address"
        },
        {
          "internalType": "uint256",
          "name": "addedValue",
          "type": "uint256"
        }
      ],
      "name": "increaseAllowance",
      "outputs": [
        {
          "internalType": "bool",
          "name": "",
          "type": "bool"
        }
      ],
      "stateMutability": "nonpayable",
      "type": "function"
    },
    {
      "inputs": [],
      "name": "name",
      "outputs": [
        {
          "internalType": "string",
          "name": "",
          "type": "string"
        }
      ],
      "stateMutability": "view",
      "type": "function",
      "constant": true
    },
    {
      "inputs": [],
      "name": "owner",
      "outputs": [
        {
          "internalType": "address",
          "name": "",
          "type": "address"
        }
      ],
      "stateMutability": "view",
      "type": "function",
      "constant": true
    },
    {
      "inputs": [],
      "name": "ownerBalance",
      "outputs": [
        {
          "internalType": "uint256",
          "name": "",
          "type": "uint256"
        }
      ],
      "stateMutability": "view",
      "type": "function",
      "constant": true
    },
    {
      "inputs": [
        {
          "internalType": "address",
          "name": "",
          "type": "address"
        }
      ],
      "name": "publisherWarning",
      "outputs": [
        {
          "internalType": "uint256",
          "name": "",
          "type": "uint256"
        }
      ],
      "stateMutability": "view",
      "type": "function",
      "constant": true
    },
    {
      "inputs": [],
      "name": "symbol",
      "outputs": [
        {
          "internalType": "string",
          "name": "",
          "type": "string"
        }
      ],
      "stateMutability": "view",
      "type": "function",
      "constant": true
    },
    {
      "inputs": [],
      "name": "totalSupply",
      "outputs": [
        {
          "internalType": "uint256",
          "name": "",
          "type": "uint256"
        }
      ],
      "stateMutability": "view",
      "type": "function",
      "constant": true
    },
    {
      "inputs": [
        {
          "internalType": "address",
          "name": "recipient",
          "type": "address"
        },
        {
          "internalType": "uint256",
          "name": "amount",
          "type": "uint256"
        }
      ],
      "name": "transfer",
      "outputs": [
        {
          "internalType": "bool",
          "name": "",
          "type": "bool"
        }
      ],
      "stateMutability": "nonpayable",
      "type": "function"
    },
    {
      "inputs": [
        {
          "internalType": "address",
          "name": "sender",
          "type": "address"
        },
        {
          "internalType": "address",
          "name": "recipient",
          "type": "address"
        },
        {
          "internalType": "uint256",
          "name": "amount",
          "type": "uint256"
        }
      ],
      "name": "transferFrom",
      "outputs": [
        {
          "internalType": "bool",
          "name": "",
          "type": "bool"
        }
      ],
      "stateMutability": "nonpayable",
      "type": "function"
    },
    {
      "inputs": [],
      "name": "validatorCount",
      "outputs": [
        {
          "internalType": "uint256",
          "name": "",
          "type": "uint256"
        }
      ],
      "stateMutability": "view",
      "type": "function",
      "constant": true
    },
    {
      "inputs": [
        {
          "internalType": "address",
          "name": "",
          "type": "address"
        }
      ],
      "name": "validatorScore",
      "outputs": [
        {
          "internalType": "uint256",
          "name": "",
          "type": "uint256"
        }
      ],
      "stateMutability": "view",
      "type": "function",
      "constant": true
    },
    {
      "inputs": [
        {
          "internalType": "address",
          "name": "_recepient",
          "type": "address"
        },
        {
          "internalType": "uint256",
          "name": "_amount",
          "type": "uint256"
        }
      ],
      "name": "transferDep",
      "outputs": [],
      "stateMutability": "nonpayable",
      "type": "function"
    },
    {
      "inputs": [
        {
          "internalType": "address",
          "name": "_validatorAddress",
          "type": "address"
        }
      ],
      "name": "validatorRegistration",
      "outputs": [],
      "stateMutability": "payable",
      "type": "function",
      "payable": true
    },
    {
      "inputs": [
        {
          "internalType": "address",
          "name": "validator",
          "type": "address"
        },
        {
          "internalType": "uint256",
          "name": "score",
          "type": "uint256"
        },
        {
          "internalType": "address",
          "name": "_publisher",
          "type": "address"
        },
        {
          "internalType": "string",
          "name": "_articleValidity",
          "type": "string"
        }
      ],
      "name": "rewardValidator",
      "outputs": [],
      "stateMutability": "nonpayable",
      "type": "function"
    },
    {
      "inputs": [
        {
          "internalType": "address",
          "name": "_publisher",
          "type": "address"
        },
        {
          "internalType": "string",
          "name": "_articleValidity",
          "type": "string"
        }
      ],
      "name": "monitorPublisher",
      "outputs": [],
      "stateMutability": "nonpayable",
      "type": "function"
    }
  ],
  "bytecode": "0x608060405264174876e80060065560006009553480156200001f57600080fd5b506040516200202238038062002022833981810160405260408110156200004557600080fd5b81019080805160405193929190846401000000008211156200006657600080fd5b838201915060208201858111156200007d57600080fd5b82518660018202830111640100000000821117156200009b57600080fd5b8083526020830192505050908051906020019080838360005b83811015620000d1578082015181840152602081019050620000b4565b50505050905090810190601f168015620000ff5780820380516001836020036101000a031916815260200191505b50604052602001805160405193929190846401000000008211156200012357600080fd5b838201915060208201858111156200013a57600080fd5b82518660018202830111640100000000821117156200015857600080fd5b8083526020830192505050908051906020019080838360005b838110156200018e57808201518184015260208101905062000171565b50505050905090810190601f168015620001bc5780820380516001836020036101000a031916815260200191505b5060405250505081818160039080519060200190620001dd92919062000540565b508060049080519060200190620001f692919062000540565b506012600560006101000a81548160ff021916908360ff160217905550505033600760006101000a81548173ffffffffffffffffffffffffffffffffffffffff021916908373ffffffffffffffffffffffffffffffffffffffff160217905550600760009054906101000a900473ffffffffffffffffffffffffffffffffffffffff1673ffffffffffffffffffffffffffffffffffffffff1631600881905550620002cc600760009054906101000a900473ffffffffffffffffffffffffffffffffffffffff16600654620002d460201b60201c565b5050620005ef565b600073ffffffffffffffffffffffffffffffffffffffff168273ffffffffffffffffffffffffffffffffffffffff16141562000378576040517f08c379a000000000000000000000000000000000000000000000000000000000815260040180806020018281038252601f8152602001807f45524332303a206d696e7420746f20746865207a65726f20616464726573730081525060200191505060405180910390fd5b6200038c60008383620004b260201b60201c565b620003a881600254620004b760201b6200185f1790919060201c565b60028190555062000406816000808573ffffffffffffffffffffffffffffffffffffffff1673ffffffffffffffffffffffffffffffffffffffff16815260200190815260200160002054620004b760201b6200185f1790919060201c565b6000808473ffffffffffffffffffffffffffffffffffffffff1673ffffffffffffffffffffffffffffffffffffffff168152602001908152602001600020819055508173ffffffffffffffffffffffffffffffffffffffff16600073ffffffffffffffffffffffffffffffffffffffff167fddf252ad1be2c89b69c2b068fc378daa952ba7f163c4a11628f55a4df523b3ef836040518082815260200191505060405180910390a35050565b505050565b60008082840190508381101562000536576040517f08c379a000000000000000000000000000000000000000000000000000000000815260040180806020018281038252601b8152602001807f536166654d6174683a206164646974696f6e206f766572666c6f77000000000081525060200191505060405180910390fd5b8091505092915050565b828054600181600116156101000203166002900490600052602060002090601f016020900481019282601f106200058357805160ff1916838001178555620005b4565b82800160010185558215620005b4579182015b82811115620005b357825182559160200191906001019062000596565b5b509050620005c39190620005c7565b5090565b620005ec91905b80821115620005e8576000816000905550600101620005ce565b5090565b90565b611a2380620005ff6000396000f3fe6080604052600436106101345760003560e01c806370a08231116100ab578063b224e7611161006f578063b224e76114610734578063b5fa6ca41461081c578063bedcf00314610877578063dd62ed3e146108a2578063dd79fb4c14610927578063f149b3f014610a3957610134565b806370a08231146105025780638da5cb5b1461056757806395d89b41146105be578063a457c2d71461064e578063a9059cbb146106c157610134565b80631afe45ce116100fd5780631afe45ce146102bd57806323b872dd14610322578063313ce567146103b557806339509351146103e65780635da8d0871461045957806361217ce6146104be57610134565b80623ceed01461013957806306fdde0314610164578063095ea7b3146101f45780630f43a6771461026757806318160ddd14610292575b600080fd5b34801561014557600080fd5b5061014e610a9e565b6040518082815260200191505060405180910390f35b34801561017057600080fd5b50610179610aa4565b6040518080602001828103825283818151815260200191508051906020019080838360005b838110156101b957808201518184015260208101905061019e565b50505050905090810190601f1680156101e65780820380516001836020036101000a031916815260200191505b509250505060405180910390f35b34801561020057600080fd5b5061024d6004803603604081101561021757600080fd5b81019080803573ffffffffffffffffffffffffffffffffffffffff16906020019092919080359060200190929190505050610b46565b604051808215151515815260200191505060405180910390f35b34801561027357600080fd5b5061027c610b64565b6040518082815260200191505060405180910390f35b34801561029e57600080fd5b506102a7610b6a565b6040518082815260200191505060405180910390f35b3480156102c957600080fd5b5061030c600480360360208110156102e057600080fd5b81019080803573ffffffffffffffffffffffffffffffffffffffff169060200190929190505050610b74565b6040518082815260200191505060405180910390f35b34801561032e57600080fd5b5061039b6004803603606081101561034557600080fd5b81019080803573ffffffffffffffffffffffffffffffffffffffff169060200190929190803573ffffffffffffffffffffffffffffffffffffffff16906020019092919080359060200190929190505050610b8c565b604051808215151515815260200191505060405180910390f35b3480156103c157600080fd5b506103ca610c65565b604051808260ff1660ff16815260200191505060405180910390f35b3480156103f257600080fd5b5061043f6004803603604081101561040957600080fd5b81019080803573ffffffffffffffffffffffffffffffffffffffff16906020019092919080359060200190929190505050610c7c565b604051808215151515815260200191505060405180910390f35b34801561046557600080fd5b506104a86004803603602081101561047c57600080fd5b81019080803573ffffffffffffffffffffffffffffffffffffffff169060200190929190505050610d2f565b6040518082815260200191505060405180910390f35b610500600480360360208110156104d457600080fd5b81019080803573ffffffffffffffffffffffffffffffffffffffff169060200190929190505050610d47565b005b34801561050e57600080fd5b506105516004803603602081101561052557600080fd5b81019080803573ffffffffffffffffffffffffffffffffffffffff169060200190929190505050610dd0565b6040518082815260200191505060405180910390f35b34801561057357600080fd5b5061057c610e18565b604051808273ffffffffffffffffffffffffffffffffffffffff1673ffffffffffffffffffffffffffffffffffffffff16815260200191505060405180910390f35b3480156105ca57600080fd5b506105d3610e3e565b6040518080602001828103825283818151815260200191508051906020019080838360005b838110156106135780820151818401526020810190506105f8565b50505050905090810190601f1680156106405780820380516001836020036101000a031916815260200191505b509250505060405180910390f35b34801561065a57600080fd5b506106a76004803603604081101561067157600080fd5b81019080803573ffffffffffffffffffffffffffffffffffffffff16906020019092919080359060200190929190505050610ee0565b604051808215151515815260200191505060405180910390f35b3480156106cd57600080fd5b5061071a600480360360408110156106e457600080fd5b81019080803573ffffffffffffffffffffffffffffffffffffffff16906020019092919080359060200190929190505050610fad565b604051808215151515815260200191505060405180910390f35b34801561074057600080fd5b5061081a6004803603604081101561075757600080fd5b81019080803573ffffffffffffffffffffffffffffffffffffffff1690602001909291908035906020019064010000000081111561079457600080fd5b8201836020820111156107a657600080fd5b803590602001918460018302840111640100000000831117156107c857600080fd5b91908080601f016020809104026020016040519081016040528093929190818152602001838380828437600081840152601f19601f820116905080830192505050505050509192919290505050610fcb565b005b34801561082857600080fd5b506108756004803603604081101561083f57600080fd5b81019080803573ffffffffffffffffffffffffffffffffffffffff169060200190929190803590602001909291905050506110ee565b005b34801561088357600080fd5b5061088c61117a565b6040518082815260200191505060405180910390f35b3480156108ae57600080fd5b50610911600480360360408110156108c557600080fd5b81019080803573ffffffffffffffffffffffffffffffffffffffff169060200190929190803573ffffffffffffffffffffffffffffffffffffffff169060200190929190505050611180565b6040518082815260200191505060405180910390f35b34801561093357600080fd5b50610a376004803603608081101561094a57600080fd5b81019080803573ffffffffffffffffffffffffffffffffffffffff16906020019092919080359060200190929190803573ffffffffffffffffffffffffffffffffffffffff169060200190929190803590602001906401000000008111156109b157600080fd5b8201836020820111156109c357600080fd5b803590602001918460018302840111640100000000831117156109e557600080fd5b91908080601f016020809104026020016040519081016040528093929190818152602001838380828437600081840152601f19601f820116905080830192505050505050509192919290505050611207565b005b348015610a4557600080fd5b50610a8860048036036020811015610a5c57600080fd5b81019080803573ffffffffffffffffffffffffffffffffffffffff1690602001909291905050506112cd565b6040518082815260200191505060405180910390f35b600a5481565b606060038054600181600116156101000203166002900480601f016020809104026020016040519081016040528092919081815260200182805460018160011615610100020316600290048015610b3c5780601f10610b1157610100808354040283529160200191610b3c565b820191906000526020600020905b815481529060010190602001808311610b1f57829003601f168201915b5050505050905090565b6000610b5a610b536112e5565b84846112ed565b6001905092915050565b60095481565b6000600254905090565b600b6020528060005260406000206000915090505481565b6000610b998484846114e4565b610c5a84610ba56112e5565b610c558560405180606001604052806028815260200161195860289139600160008b73ffffffffffffffffffffffffffffffffffffffff1673ffffffffffffffffffffffffffffffffffffffff1681526020019081526020016000206000610c0b6112e5565b73ffffffffffffffffffffffffffffffffffffffff1673ffffffffffffffffffffffffffffffffffffffff168152602001908152602001600020546117a59092919063ffffffff16565b6112ed565b600190509392505050565b6000600560009054906101000a900460ff16905090565b6000610d25610c896112e5565b84610d208560016000610c9a6112e5565b73ffffffffffffffffffffffffffffffffffffffff1673ffffffffffffffffffffffffffffffffffffffff16815260200190815260200160002060008973ffffffffffffffffffffffffffffffffffffffff1673ffffffffffffffffffffffffffffffffffffffff1681526020019081526020016000205461185f90919063ffffffff16565b6112ed565b6001905092915050565b600c6020528060005260406000206000915090505481565b660886c98b7600003414610d5a57600080fd5b6009600081548092919060010191905055503460086000828254019250508190555061ea60600b60008373ffffffffffffffffffffffffffffffffffffffff1673ffffffffffffffffffffffffffffffffffffffff16815260200190815260200160002081905550610dcd8160056110ee565b50565b60008060008373ffffffffffffffffffffffffffffffffffffffff1673ffffffffffffffffffffffffffffffffffffffff168152602001908152602001600020549050919050565b600760009054906101000a900473ffffffffffffffffffffffffffffffffffffffff1681565b606060048054600181600116156101000203166002900480601f016020809104026020016040519081016040528092919081815260200182805460018160011615610100020316600290048015610ed65780601f10610eab57610100808354040283529160200191610ed6565b820191906000526020600020905b815481529060010190602001808311610eb957829003601f168201915b5050505050905090565b6000610fa3610eed6112e5565b84610f9e856040518060600160405280602581526020016119c96025913960016000610f176112e5565b73ffffffffffffffffffffffffffffffffffffffff1673ffffffffffffffffffffffffffffffffffffffff16815260200190815260200160002060008a73ffffffffffffffffffffffffffffffffffffffff1673ffffffffffffffffffffffffffffffffffffffff168152602001908152602001600020546117a59092919063ffffffff16565b6112ed565b6001905092915050565b6000610fc1610fba6112e5565b84846114e4565b6001905092915050565b60405160200180807f7472756500000000000000000000000000000000000000000000000000000000815250600401905060405160208183030381529060405280519060200120816040516020018082805190602001908083835b602083106110495780518252602082019150602081019050602083039250611026565b6001836020036101000a03801982511681845116808217855250505050505090500191505060405160208183030381529060405280519060200120141561109a576110958260016110ee565b6110ea565b600d60008373ffffffffffffffffffffffffffffffffffffffff1673ffffffffffffffffffffffffffffffffffffffff168152602001908152602001600020600081548092919060010191905055505b5050565b8173ffffffffffffffffffffffffffffffffffffffff16600760009054906101000a900473ffffffffffffffffffffffffffffffffffffffff1673ffffffffffffffffffffffffffffffffffffffff16141561114957600080fd5b611176600760009054906101000a900473ffffffffffffffffffffffffffffffffffffffff1683836114e4565b5050565b60085481565b6000600160008473ffffffffffffffffffffffffffffffffffffffff1673ffffffffffffffffffffffffffffffffffffffff16815260200190815260200160002060008373ffffffffffffffffffffffffffffffffffffffff1673ffffffffffffffffffffffffffffffffffffffff16815260200190815260200160002054905092915050565b600060649050600081856002028161121b57fe5b04905084600c60008873ffffffffffffffffffffffffffffffffffffffff1673ffffffffffffffffffffffffffffffffffffffff168152602001908152602001600020819055506103e8600b60008873ffffffffffffffffffffffffffffffffffffffff1673ffffffffffffffffffffffffffffffffffffffff168152602001908152602001600020600082825401925050819055506112bb86826110ee565b6112c58484610fcb565b505050505050565b600d6020528060005260406000206000915090505481565b600033905090565b600073ffffffffffffffffffffffffffffffffffffffff168373ffffffffffffffffffffffffffffffffffffffff161415611373576040517f08c379a00000000000000000000000000000000000000000000000000000000081526004018080602001828103825260248152602001806119a56024913960400191505060405180910390fd5b600073ffffffffffffffffffffffffffffffffffffffff168273ffffffffffffffffffffffffffffffffffffffff1614156113f9576040517f08c379a00000000000000000000000000000000000000000000000000000000081526004018080602001828103825260228152602001806119106022913960400191505060405180910390fd5b80600160008573ffffffffffffffffffffffffffffffffffffffff1673ffffffffffffffffffffffffffffffffffffffff16815260200190815260200160002060008473ffffffffffffffffffffffffffffffffffffffff1673ffffffffffffffffffffffffffffffffffffffff168152602001908152602001600020819055508173ffffffffffffffffffffffffffffffffffffffff168373ffffffffffffffffffffffffffffffffffffffff167f8c5be1e5ebec7d5bd14f71427d1e84f3dd0314c0f7b2291e5b200ac8c7c3b925836040518082815260200191505060405180910390a3505050565b600073ffffffffffffffffffffffffffffffffffffffff168373ffffffffffffffffffffffffffffffffffffffff16141561156a576040517f08c379a00000000000000000000000000000000000000000000000000000000081526004018080602001828103825260258152602001806119806025913960400191505060405180910390fd5b600073ffffffffffffffffffffffffffffffffffffffff168273ffffffffffffffffffffffffffffffffffffffff1614156115f0576040517f08c379a00000000000000000000000000000000000000000000000000000000081526004018080602001828103825260238152602001806118ed6023913960400191505060405180910390fd5b6115fb8383836118e7565b61166681604051806060016040528060268152602001611932602691396000808773ffffffffffffffffffffffffffffffffffffffff1673ffffffffffffffffffffffffffffffffffffffff168152602001908152602001600020546117a59092919063ffffffff16565b6000808573ffffffffffffffffffffffffffffffffffffffff1673ffffffffffffffffffffffffffffffffffffffff168152602001908152602001600020819055506116f9816000808573ffffffffffffffffffffffffffffffffffffffff1673ffffffffffffffffffffffffffffffffffffffff1681526020019081526020016000205461185f90919063ffffffff16565b6000808473ffffffffffffffffffffffffffffffffffffffff1673ffffffffffffffffffffffffffffffffffffffff168152602001908152602001600020819055508173ffffffffffffffffffffffffffffffffffffffff168373ffffffffffffffffffffffffffffffffffffffff167fddf252ad1be2c89b69c2b068fc378daa952ba7f163c4a11628f55a4df523b3ef836040518082815260200191505060405180910390a3505050565b6000838311158290611852576040517f08c379a00000000000000000000000000000000000000000000000000000000081526004018080602001828103825283818151815260200191508051906020019080838360005b838110156118175780820151818401526020810190506117fc565b50505050905090810190601f1680156118445780820380516001836020036101000a031916815260200191505b509250505060405180910390fd5b5082840390509392505050565b6000808284019050838110156118dd576040517f08c379a000000000000000000000000000000000000000000000000000000000815260040180806020018281038252601b8152602001807f536166654d6174683a206164646974696f6e206f766572666c6f77000000000081525060200191505060405180910390fd5b8091505092915050565b50505056fe45524332303a207472616e7366657220746f20746865207a65726f206164647265737345524332303a20617070726f766520746f20746865207a65726f206164647265737345524332303a207472616e7366657220616d6f756e7420657863656564732062616c616e636545524332303a207472616e7366657220616d6f756e74206578636565647320616c6c6f77616e636545524332303a207472616e736665722066726f6d20746865207a65726f206164647265737345524332303a20617070726f76652066726f6d20746865207a65726f206164647265737345524332303a2064656372656173656420616c6c6f77616e63652062656c6f77207a65726fa2646970667358221220b5a1c5b73f732709bb4813e78d2cc795b60a61575ad27b31391457080158deaa64736f6c63430006000033",
  "source": "//SPDX-License-Identifier: MIT\r\npragma solidity >=0.4.22 <0.9.0;\r\n\r\nimport \"@openzeppelin/contracts/token/ERC20/ERC20.sol\";\r\n\r\ncontract DeProne is ERC20 {\r\n\r\n    uint256 initialSupply = 100000000000;\r\n\r\n    //address owner of the deployed contract\r\n    address public owner;\r\n    \r\n    //address owner balance\r\n    uint public ownerBalance;\r\n\r\n    //count of validators\r\n    uint256 public validatorCount = 0;\r\n    \r\n    //count of calculated validator score\r\n    uint256 public calculatedScoreCountValidator;\r\n\r\n    //mapping of validators with initial score;\r\n    mapping(address => uint256) public RegisteredValidators;\r\n    \r\n    //mapping of validators calculated score\r\n    mapping(address => uint256) public validatorScore;\r\n\r\n    //Mapping of publisher with truthfullness score\r\n    mapping(address => uint256) public publisherWarning;\r\n    \r\n\r\n    constructor(string memory _tokenName, string memory _tokenSymbol) ERC20(_tokenName, _tokenSymbol) public  {\r\n        owner = msg.sender;\r\n        ownerBalance = owner.balance;\r\n        _mint(owner, initialSupply);\r\n    }\r\n\r\n    function transferDep(address _recepient, uint256 _amount) public{\r\n        require(owner != _recepient);\r\n        _transfer(owner,_recepient, _amount);\r\n    }\r\n    \r\n    function validatorRegistration(address _validatorAddress) public  payable {\r\n        //check the value\r\n        require(msg.value == 0.0024 ether);\r\n        validatorCount++;\r\n        ownerBalance+= msg.value;\r\n        RegisteredValidators[_validatorAddress] = 60000;\r\n        transferDep(_validatorAddress,5);\r\n    }\r\n\r\n    //validator reward calculation and add validator score\r\n\r\n    function rewardValidator(address validator, uint256 score, address _publisher, string memory _articleValidity) public {\r\n        uint256 scoreDenominator = 100;\r\n\r\n        uint256 reward = 2 * score/scoreDenominator;        //reward = assigned_token * score/scoreDenominator\r\n        validatorScore[validator] = score;\r\n        RegisteredValidators[validator]+= 1000;\r\n        transferDep(validator, reward);\r\n        monitorPublisher(_publisher, _articleValidity);\r\n    }\r\n\r\n    function monitorPublisher(address _publisher, string memory _articleValidity ) public {\r\n        \r\n        if(keccak256(abi.encodePacked(_articleValidity)) == keccak256(abi.encodePacked(\"true\"))){\r\n            transferDep(_publisher, 1);\r\n        }else{\r\n            publisherWarning[_publisher]++;\r\n        }\r\n    }\r\n\r\n\r\n\r\n\r\n}",
  "sourcePath": "D:/Blockchain Implementation FYP/deprone-v2/contracts/DeProne.sol",
  "compiler": {
    "name": "solc",
    "version": "0.6.0+commit.26b70077.Emscripten.clang"
  },
  "schemaVersion": "3.3.3",
  "updatedAt": "2021-05-16T17:04:14.077Z",
  "networkType": "ethereum",
  "devdoc": {
    "methods": {
      "allowance(address,address)": {
        "details": "See {IERC20-allowance}."
      },
      "approve(address,uint256)": {
        "details": "See {IERC20-approve}.     * Requirements:     * - `spender` cannot be the zero address."
      },
      "balanceOf(address)": {
        "details": "See {IERC20-balanceOf}."
      },
      "decimals()": {
        "details": "Returns the number of decimals used to get its user representation. For example, if `decimals` equals `2`, a balance of `505` tokens should be displayed to a user as `5,05` (`505 / 10 ** 2`).     * Tokens usually opt for a value of 18, imitating the relationship between Ether and Wei. This is the value {ERC20} uses, unless {_setupDecimals} is called.     * NOTE: This information is only used for _display_ purposes: it in no way affects any of the arithmetic of the contract, including {IERC20-balanceOf} and {IERC20-transfer}."
      },
      "decreaseAllowance(address,uint256)": {
        "details": "Atomically decreases the allowance granted to `spender` by the caller.     * This is an alternative to {approve} that can be used as a mitigation for problems described in {IERC20-approve}.     * Emits an {Approval} event indicating the updated allowance.     * Requirements:     * - `spender` cannot be the zero address. - `spender` must have allowance for the caller of at least `subtractedValue`."
      },
      "increaseAllowance(address,uint256)": {
        "details": "Atomically increases the allowance granted to `spender` by the caller.     * This is an alternative to {approve} that can be used as a mitigation for problems described in {IERC20-approve}.     * Emits an {Approval} event indicating the updated allowance.     * Requirements:     * - `spender` cannot be the zero address."
      },
      "name()": {
        "details": "Returns the name of the token."
      },
      "symbol()": {
        "details": "Returns the symbol of the token, usually a shorter version of the name."
      },
      "totalSupply()": {
        "details": "See {IERC20-totalSupply}."
      },
      "transfer(address,uint256)": {
        "details": "See {IERC20-transfer}.     * Requirements:     * - `recipient` cannot be the zero address. - the caller must have a balance of at least `amount`."
      },
      "transferFrom(address,address,uint256)": {
        "details": "See {IERC20-transferFrom}.     * Emits an {Approval} event indicating the updated allowance. This is not required by the EIP. See the note at the beginning of {ERC20}.     * Requirements:     * - `sender` and `recipient` cannot be the zero address. - `sender` must have a balance of at least `amount`. - the caller must have allowance for ``sender``'s tokens of at least `amount`."
      }
    }
  },
  "userdoc": {
    "methods": {}
  }
}