{
  "contractName": "IPFSHash",
  "abi": [
    {
      "inputs": [
        {
          "internalType": "uint256",
          "name": "",
          "type": "uint256"
        }
      ],
      "name": "hashesOfArticle",
      "outputs": [
        {
          "internalType": "string",
          "name": "hash",
          "type": "string"
        }
      ],
      "stateMutability": "view",
      "type": "function",
      "constant": true
    },
    {
      "inputs": [],
      "name": "hashesOfArticleCount",
      "outputs": [
        {
          "internalType": "uint256",
          "name": "",
          "type": "uint256"
        }
      ],
      "stateMutability": "view",
      "type": "function",
      "constant": true
    },
    {
      "inputs": [
        {
          "internalType": "string",
          "name": "articleHash",
          "type": "string"
        }
      ],
      "name": "storeHash",
      "outputs": [],
      "stateMutability": "nonpayable",
      "type": "function"
    },
    {
      "inputs": [
        {
          "internalType": "uint256",
          "name": "articleId",
          "type": "uint256"
        },
        {
          "internalType": "string",
          "name": "updatedArticleHash",
          "type": "string"
        }
      ],
      "name": "updateHash",
      "outputs": [],
      "stateMutability": "nonpayable",
      "type": "function"
    }
  ],
  "bytecode": "0x608060405234801561001057600080fd5b506104e5806100206000396000f3fe608060405234801561001057600080fd5b506004361061004c5760003560e01c80630f6c9ab61461005157806334ea0e671461011657806371dc61cb14610134578063e0ae42fd146101ef575b600080fd5b6101146004803603604081101561006757600080fd5b81019080803590602001909291908035906020019064010000000081111561008e57600080fd5b8201836020820111156100a057600080fd5b803590602001918460018302840111640100000000831117156100c257600080fd5b91908080601f016020809104026020016040519081016040528093929190818152602001838380828437600081840152601f19601f820116905080830192505050505050509192919290505050610296565b005b61011e6102f6565b6040518082815260200191505060405180910390f35b6101ed6004803603602081101561014a57600080fd5b810190808035906020019064010000000081111561016757600080fd5b82018360208201111561017957600080fd5b8035906020019184600183028401116401000000008311171561019b57600080fd5b91908080601f016020809104026020016040519081016040528093929190818152602001838380828437600081840152601f19601f8201169050808301925050505050505091929192905050506102fc565b005b61021b6004803603602081101561020557600080fd5b8101908080359060200190929190505050610354565b6040518080602001828103825283818151815260200191508051906020019080838360005b8381101561025b578082015181840152602081019050610240565b50505050905090810190601f1680156102885780820380516001836020036101000a031916815260200191505b509250505060405180910390f35b6000821180156102a857506001548211155b6102b157600080fd5b60405180602001604052808281525060008084815260200190815260200160002060008201518160000190805190602001906102ee92919061040a565b509050505050565b60015481565b6001600081548092919060010191905055506040518060200160405280828152506000806001548152602001908152602001600020600082015181600001908051906020019061034d92919061040a565b5090505050565b6000602052806000526040600020600091509050806000018054600181600116156101000203166002900480601f0160208091040260200160405190810160405280929190818152602001828054600181600116156101000203166002900480156104005780601f106103d557610100808354040283529160200191610400565b820191906000526020600020905b8154815290600101906020018083116103e357829003601f168201915b5050505050905081565b828054600181600116156101000203166002900490600052602060002090601f016020900481019282601f1061044b57805160ff1916838001178555610479565b82800160010185558215610479579182015b8281111561047857825182559160200191906001019061045d565b5b509050610486919061048a565b5090565b6104ac91905b808211156104a8576000816000905550600101610490565b5090565b9056fea26469706673582212200ca3b7af717e33f55f080d68c52afffa0c095e2f14d71334ba7b2727031c709264736f6c63430006000033",
  "source": "// SPDX-License-Identifier: MIT\r\npragma solidity >=0.4.22 <0.8.0;\r\n//pragma experimental ABIEncoderV2;\r\n\r\ncontract IPFSHash {\r\n    \r\n    struct IPFSHashes {\r\n        string hash;\r\n    }\r\n    \r\n    mapping (uint => IPFSHashes) public hashesOfArticle;\r\n    \r\n    uint public hashesOfArticleCount;\r\n    \r\n    function storeHash(string memory articleHash) public {\r\n        hashesOfArticleCount++;\r\n        hashesOfArticle[hashesOfArticleCount] = IPFSHashes(articleHash);\r\n    }\r\n    \r\n    function updateHash(uint articleId, string memory updatedArticleHash) public {\r\n        require(articleId > 0 && articleId <= hashesOfArticleCount);\r\n        hashesOfArticle[articleId] = IPFSHashes(updatedArticleHash);\r\n    }\r\n    \r\n    \r\n}",
  "sourcePath": "D:/Blockchain Implementation FYP/deprone-v2/contracts/IPFSHash.sol",
  "compiler": {
    "name": "solc",
    "version": "0.6.0+commit.26b70077.Emscripten.clang"
  },
  "schemaVersion": "3.3.3",
  "updatedAt": "2021-05-16T17:02:50.015Z",
  "networkType": "ethereum",
  "devdoc": {
    "methods": {}
  },
  "userdoc": {
    "methods": {}
  }
}